:100000000C9462020C948A020C948A020C948A0268
:100010000C948A020C948A020C948A020C948A0230
:100020000C948A020C94EC1D0C948A020C948A02A3
:100030000C948A020C94161E0C948A020C948A0268
:100040000C94E42F0C948A020C946A310C949C3129
:100050000C948A020C948A020C948A020C948A02F0
:100060000C948A020C948A02EA07B407AA07C8070C
:10007000BC07B8077C07A1074275666665722070E9
:100080006F696E746572206973204E554C4C210D5A
:100090000A000D0A62797465436F756E7420697386
:1000A000207A65726F0D0A004344503A3A506172EB
:1000B000736544657363726970746F72205553423F
:1000C0005F44455343524950544F5220756E6B6EF6
:1000D0006F776E2000205553425F44455343524989
:1000E00050544F525F4849440D0A00205553425F17
:1000F00044455343524950544F525F454E44504F2C
:10010000494E540D0A00205553425F444553435213
:100110004950544F525F494E544552464143450D54
:100120000A00205553425F44455343524950544FAF
:10013000525F434F4E46494755524154494F4E0D29
:100140000A00203C504D5F7573623A3A456E647008
:100150006F696E7458747261637420624E756D4578
:100160005020002C20657041747472696273200005
:100170002C206D6178506B7453697A6520002020C3
:10018000504D5F7573623A3A456E64706F696E7474
:100190005874726163742065704164647220002039
:1001A00020504D5F7573623A3A456E64706F696EA8
:1001B0007458747261637420496E746572727570DC
:1001C00074204F757420656E64706F696E742C2096
:1001D000696E64657820002020504D5F7573623A27
:1001E0003A456E64706F696E7458747261637420FE
:1001F000496E7465727275707420496E20656E6404
:10020000706F696E742C20696E64657820002C20F4
:10021000624E756D455020002C2070726F746F20F7
:10022000002C20616C7420002C20696661636520BD
:1002300000203E504D5F7573623A3A456E64706FB0
:10024000696E7458747261637420636F6E66200007
:10025000504D5F7573623A3A52656C656173650D16
:100260000A003C504D5F7573623A3A496E69740DED
:100270000A0020504D5F7573623B3A496E697420E5
:1002800062436F6E664E756D200020504D5F757332
:10029000623A3A496E6974206661696C65642074DB
:1002A0006F207365744570496E666F456E74727920
:1002B0002C2072636F64652000203C203220736F15
:1002C0002072657475726E204445564943455F4EF1
:1002D0004F545F535550504F52544544003C504D7D
:1002E0005F7573623A3A496E697420624E556D4586
:1002F00050200020504D5F7573623A3A496E697420
:10030000206E756D5F6F665F636F6E6620002050B4
:100310004D5F7573623A3A496E6974206241646454
:100320007265737320002C206C6F77737065656441
:1003300020002C20706F727420003E504D5F75734A
:10034000623A3A496E697420706172656E74200079
:10035000476574526573706F6E736520696E547271
:10036000616E73666572206572726F722C207263A3
:100370006F6465200053656E64436F6D6D616E64DC
:10038000206F75745472616E736665722065727247
:100390006F722C2072636F646520003C5553423AA3
:1003A0003A436F6E6669677572696E670D0A003C45
:1003B0005553423A3A436F6E6669677572696E6764
:1003C0002072657475726E73206572726F72200090
:1003D0003C5553423A3A436F6E6669677572696E6F
:1003E0006720737563636573730D0A00205553426C
:1003F0003A3A436F6E6669677572696E6720646525
:10040000762D3E496E69742072657475726E6564EE
:100410002000205553423A3A436F6E666967757201
:10042000696E672064657669636520696E646578C6
:1004300020002C206C6F77737065656420002C2081
:10044000706F727420003E5553423A3A436F6E66A5
:1004500069677572696E6720706172656E742000DD
:100460000000000800020100000304070000000073
:10047000000000000102040810204080010204086E
:1004800010200102040810200404040404040404DD
:10049000020202020202030303030303000000003E
:1004A000250028002B0000000000240027002A005F
:1004B0002409E10D2C0E831264146F14CF16CC3175
:1004C0006A32BB0911241FBECFEFD8E0DEBFCDBF1B
:1004D00012E0A0E0B1E0EAEEF9E702C005900D926B
:1004E000A63EB107D9F726E0A6EEB2E001C01D9204
:1004F000A036B207E1F714E0C2ECD4E004C02297C2
:10050000FE010E940B39C03BD107C9F70E947A3225
:100510000C94E83C0C94000081E08093090308955A
:1005200081E08093080308959C01FC01E856FF4F89
:1005300080819181680F791F6739710530F471836B
:1005400060830296820F931F089580E090E00895E3
:10055000FC01848195810E944C3581E090E00895F2
:10056000CF93C82F60E08AE00E943431CEBD0DB435
:1005700007FEFDCF1EBC0DB407FEFDCF61E08AE093
:100580000E9434318EB5CF910895CF93DF93D82F49
:10059000C62F60E08AE00E943431D260DEBD0DB427
:1005A00007FEFDCFCEBD0DB407FEFDCF2A9A61E058
:1005B0008AE0DF91CF910C943431CF93DF93EC013B
:1005C000888199810E94D5322A813B81280F391F69
:1005D0003B832A83DF91CF9108958F929F92AF92B0
:1005E000BF92EF92FF920F931F93CF93DF93CDB7FC
:1005F000DEB766970FB6F894DEBF0FBECDBF7C01A5
:100600001E8A8E010A5E1F4F8AE0882E912CA12C33
:10061000B12CCB01BA01A50194010E94E738CA01AF
:10062000605DF80162938F01A901BC01411551057C
:100630006105710571F7BF01C7010E94DD02669671
:100640000FB6F894DEBF0FBECDBFDF91CF911F91E3
:100650000F91FF90EF90BF90AF909F908F90089573
:10066000CF93DF93EC0188819981DC01ED91FC91BE
:100670000190F081E02D09952A813B81280F391FD7
:100680003B832A83DF91CF910895FF920F931F93AD
:10069000CF93DF93EC018B016115710549F46BE198
:1006A00071E0DF91CF911F910F91FF900C94DD02CB
:1006B00062E2CE010E943003F80161918F0166234E
:1006C00091F081E291E0FC013197F080FF2089F305
:1006D0000296319630813613F6CF6CE5CE010E943A
:1006E00030036F2DE6CF62E2CE01DF91CF911F91F3
:1006F0000F91FF900C9430038130F1F048F082307C
:1007000061F0833079F46FE672E183E89AE308954B
:1007100060E070E080E89FE308956AE077ED83E2AF
:100720009CE3089584500E947C0327E137EB41ED60
:1007300058E30E94703808956DEC7CEC8CEC9DE3DE
:1007400008957F928F929F92AF92BF92CF92DF9245
:10075000EF92FF920F931F93CF93DF93EC016A0107
:100760007B01722E9A01AB01C701B6010E94D338FA
:10077000882319F06FE271E02BC020E030E0A9017E
:10078000C701B6010E941D3787FF08C06DE2CE0188
:100790000E943003F7FAF094F7F8F09446015701FD
:1007A000E894B7F82FEF3FEF4FE75FE7C501B401DB
:1007B0000E94D33881111CC02FEF3FEF4FE75FE756
:1007C000C501B4010E941D37181694F463E371E06B
:1007D000CE01DF91CF911F910F91FF90EF90DF90AD
:1007E000CF90BF90AF909F908F907F900C94DD0240
:1007F00020E030E04AE754E4C701B6010E946C38BB
:1008000000E010E018160CF12FE632E143E85AE35D
:10081000C701B6010E941D3787FF37C016C020E010
:1008200030E040E85FE3C701B6010E941D3787FF53
:1008300015C00150110920E030E040E251E4C70149
:10084000B6010E9470386B017C0120E030E0A90104
:10085000C701B6010E941D378111E1CF20E030E0D1
:1008600040E251E4C701B6010E946C3818166CF4DE
:100870000F5F1F4F20E030E040E251E4C701B601B6
:100880000E9421376B017C01E9CF872D0E947C03F8
:1008900020E030E040E05FE30E9470389B01AC0153
:1008A000C701B6010E94B9366B017C010E948E37E8
:1008B0004B015C010E94BA379B01AC01C701B60134
:1008C0000E94B8366B017C01B501A401CE010E94E3
:1008D000ED02772021F06EE2CE010E9430037720F6
:1008E00019F120E030E040E251E4C701B6010E9476
:1008F00070386B017C010E948937B62E772767FD1F
:100900007095872F972F0E94BC379B01AC01C701C0
:10091000B6010E94B8366B017C0160E36B0DCE011D
:100920000E9430037A94DBCF17FF0EC06CE371E0B6
:10093000CE010E94DD0244275527401B510B66273C
:1009400057FD6095762F0CC001151105C9F065E6BD
:10095000CE010E943003A801662757FD6095762FCF
:10096000CE01DF91CF911F910F91FF90EF90DF901B
:10097000CF90BF90AF909F908F907F900C94ED029E
:10098000DF91CF911F910F91FF90EF90DF90CF906B
:10099000BF90AF909F908F907F900895DB0110974C
:1009A00049F0ED91FC9111970190F081E02DBC018F
:1009B000CD01099480E090E00895FC0120812D3064
:1009C00051F024F42950223030F505C0203219F0BE
:1009D0002F3219F008950196F0CFFC0121812A32BF
:1009E00019F02F3279F008950296FC01208122231C
:1009F00021F32A3229F421812F3211F40296DDCF1E
:100A00000196F3CFFC013296CF0121912223A9F266
:100A10002A30D1F7D2CF08950F931F93CF93DF934E
:100A20001F92CDB7DEB78C01FC0180819181698373
:100A30000E94DD04FC0120816981261308C0019613
:100A40000E94DD04F8019183808381E001C080E091
:100A50000F90DF91CF911F910F910895CF93DF9366
:100A6000EC01AA81BB814C813D812C91273219F484
:100A7000C42FD32F15C02232D9F3C42FD32FFD0199
:100A800030C03C3559F4FD01329612963C91A4E2F7
:100A9000B1E06C91611110C0332349F13993DF014A
:100AA000AE01FD01319611963C9111973323F9F077
:100AB0003213E7CF31961BC0631303C011963C91EC
:100AC000EBCF1296E6CF322F3F7D31543A3130F0E2
:100AD0002B3221F033ED320F323048F42993319626
:100AE0002081AE0130ED320F3A30C0F3ECCFDA01A5
:100AF0001D92EC012C813D81FB83EA83BD83AC8395
:100B0000C901DF91CF9108957F928F929F92AF920A
:100B1000BF92CF92DF92EF92FF920F931F93CF93EA
:100B2000DF9300D000D000D0CDB7DEB75C01DC0190
:100B30000D911C91B80184E090E00E94CE040097D2
:100B400039F0FC0111830083138212827C0113C0EF
:100B50008091350581110BC01092E7021092E602D8
:100B60001092E9021092E80281E08093350526EEAA
:100B7000E22E22E0F22E6501F2E0CF0ED11C6BE7EF
:100B8000C6010E940C05882309F454C06DE7C60114
:100B90000E940C0581115EC096E0792EC5010E946D
:100BA0002E054C01009709F445C06AE3C6010E9476
:100BB0000C05882309F43EC01A821982BE016F5FBA
:100BC0007F4FC5010E9464068823A1F1D7011296C8
:100BD0000D911C9113970115110509F440C0F801FE
:100BE00062817381C4010E94443C892B71F0D80159
:100BF0000D911C91F0CF1183008301151105D1F0E7
:100C0000D80113969C928E921297FE013196D801CC
:100C10001496872D01900D928A95E1F76DE7C60134
:100C20000E940C05811116C06CE2C6010E940C05E1
:100C30008111B4CF8091350581110EC01092E70269
:100C40001092E6021092E9021092E80281E080938D
:100C5000350502C0C70124C086EE92E021C0F7012D
:100C6000608171818AE090E00E94CE048C0100973F
:100C700029F0F8011182108215821482D701129690
:100C8000ED91FC911397309739F080819181009715
:100C900009F4B1CFFC01F9CFF70113830283ADCF83
:100CA00026960FB6F894DEBF0FBECDBFDF91CF9171
:100CB0001F910F91FF90EF90DF90CF90BF90AF907A
:100CC0009F908F907F900895FF920F931F93CF93E3
:100CD000DF93EC018B018E81882309F447C081509A
:100CE0008E838A819B810E94DD049B838A83FC0121
:100CF00080818B3519F08B3761F01CC0CE010E94CA
:100D0000BD06FC0120813181232B59F126E030E022
:100D10000AC0CE010E948405FC0120813181232B71
:100D200001F127E030E0F80131832083938382834F
:100D300081E018C0873231F091E0823209F090E012
:100D4000F92E02C0FF24F394CE010E942E050097D5
:100D500041F0FF2019F022E030E0E5CF21E030E063
:100D6000E2CF80E09E819F5F9E8301C080E0DF91A3
:100D7000CF911F910F91FF900895BF92CF92DF9274
:100D8000EF92FF920F931F93CF93DF9300D000D089
:100D900000D0CDB7DEB76C01FC0100811181B80134
:100DA00084E090E00E94CE04009739F0FC011183AA
:100DB0000083138212828C0111C080913D05811144
:100DC0000BC01092EB021092EA021092ED02109208
:100DD000EC0281E080933D050AEE12E07601F2E03C
:100DE000EF0EF11C6BE5C7010E940C05882309F486
:100DF0004DC06DE5C7010E940C05811157C036E05A
:100E0000B32E1A821982BE016F5F7F4FC6010E9406
:100E100064068823D9F1F8016081718188E090E04F
:100E20000E94CE04DC01009739F011961C921E92AC
:100E300013961C921E921297F8012281338121157C
:100E4000310559F0F90180819181009711F09C01E1
:100E5000F9CFF901B183A08303C0F801B383A28362
:100E60001097A1F0FE01319612968B2D01900D92F4
:100E70008A95E1F76DE5C7010E940C05811116C046
:100E80006CE2C7010E940C058111BBCF80913D052A
:100E900081110EC01092EB021092EA021092ED0244
:100EA0001092EC0281E080933D0502C0C80102C0AF
:100EB0008AEE92E026960FB6F894DEBF0FBECDBF45
:100EC000DF91CF911F910F91FF90EF90DF90CF9026
:100ED000BF9008950F931F93CF93DF938C01EB0185
:100EE000FC01208131812830310508F066C0F9010C
:100EF000EC5CFF4F0C940939FC01028113816BE516
:100F0000CE010E943003F801028113810115110501
:100F100059F0BE01C80102960E946A07F8010081DB
:100F200011810115110541F46DE5CE01DF91CF91DD
:100F30001F910F910C9430036CE2CE010E9430039C
:100F4000E8CFFC0182819381DF91CF911F910F91B6
:100F50000C94EF07FC0162817381CE01DF91CF9188
:100F60001F910F910C944503FC01628173811EC097
:100F70006DE2CE010E943003F80142815381648109
:100F80007581CE01DF91CF911F910F910C94ED02ED
:100F9000FC014281538164817581452B462B472B8F
:100FA00019F06FE371E002C065E972E0CE01DF91F4
:100FB000CF911F910F910C94DD022850FC014281CA
:100FC000538164817581CE01DF91CF911F910F9183
:100FD0000C94A103DF91CF911F910F9108950F936E
:100FE0001F93CF93DF938C01EB016BE7CE010E943F
:100FF0003003F8010281138101151105A9F0F801F0
:1010000062817381CE010E9445036AE3CE010E9492
:101010003003BE01C80104960E946A07F8010081EE
:1010200011810115110541F46DE7CE01DF91CF91DA
:101030001F910F910C9430036CE2CE010E9430039B
:10104000DECF40E452E46FE070E082EA95E00E9477
:10105000A61E40E45BE46CE470E082EA95E00E9446
:101060003D1E2FEF3FEFA9016CE872E082EA95E0A8
:101070000E94B61E82EA95E00C94FD1E6EE271E0BD
:1010800089E994E00E94B034109298041092970479
:1010900010929604089588EF0E94B002807C8034FC
:1010A000A1F018F4882301F10895803819F0803CEC
:1010B000B9F0089588ED0E94B00281FD0BC069EC83
:1010C00088ED0E94C50282E00CC088ED0E94B0024B
:1010D00081FDF5CF6BEC88ED0E94C50283E001C075
:1010E00081E08093EE02089561ED88ED0E94C502D3
:1010F0001092EE0208950F931F93CF93DF938C010C
:1011000068E188E80E94C50280E90E94B00260E2BE
:1011100088E70E94C50260E088E70E94C502C0E03F
:10112000D0E088E60E94B002219680FD06C0CF3F45
:101130008FEFD807B1F78FEF1DC061EC88ED0E94EB
:10114000C50260E680ED0E94C50264E088EE0E9460
:10115000C50288EE0E94B00282FFFBCFC8010E9448
:101160004B0860E288EC0E94C50261E080E80E94C2
:10117000C50280E0DF91CF911F910F910895CF922A
:10118000DF92EF92FF920F931F93CF93DF93CDB730
:10119000DEB760970FB6F894DEBF0FBECDBF6C010F
:1011A0007B01FB01008111810130110559F462813D
:1011B00073816115710531F08BE191E00E94443C2F
:1011C000892B79F0015011090230110550F4F70113
:1011D000628173816115710521F0C6010E947A3424
:1011E00023C08E01095F1F4F6EE271E0C8010E94AB
:1011F0007A341C821B828CED91E09A8389831E8352
:101200000D83CE0101969E878D87188A1F86BE01A9
:10121000635F7F4FC7010E946A07B801C6010E9441
:10122000E733C8010E940C34C60160960FB6F894EB
:10123000DEBF0FBECDBFDF91CF911F910F91FF9009
:10124000EF90DF90CF9008950F93CF93DF93CDB7BA
:10125000DEB72C970FB6F894DEBF0FBECDBF00E00F
:1012600020E040E060E085E495E00E9453326EE2C9
:1012700071E089E994E00E947A348CE194E00E9464
:10128000DE276CE174E086E094E00E94DA2566E0F7
:1012900074E088E293E00E943A204AE067E070E060
:1012A000CE0107960E94C83464E471E0CE01019635
:1012B0000E947A34BE01695F7F4FCE0101960E9481
:1012C0005F3566E671E00E947235BC0189E193E00A
:1012D0000E94A734CE0101960E940C34CE010796DD
:1012E0000E940C344AE067E070E0CE0107960E944D
:1012F000C83469E671E0CE0101960E947A34BE01DD
:10130000695F7F4FCE0101960E945F3566E671E00E
:101310000E947235BC0183E193E00E94A734CE01A4
:1013200001960E940C34CE0107960E940C346BE8A3
:1013300071E08DE093E00E947A3408E621E048EA0B
:1013400060EC82E093E00E94533207E021E048EA3B
:1013500060EC8CEF92E00E9453328FEE92E00E949C
:101360008F132C960FB6F894DEBF0FBECDBFDF9162
:10137000CF910F9108958DE093E00E940C3483E1AA
:1013800093E00E940C3489E193E00E940C3489E9D7
:1013900094E00C940C340F931F93CF93DF9300D001
:1013A00000D000D0CDB7DEB703EC12E01A8309837A
:1013B0008091FE029091FF02A0910003B091010381
:1013C0008B839C83AD83BE83AE014F5F5F4F6CE028
:1013D00071E08BE595E00E94351268EE73E080E0E5
:1013E00090E00E945D3040910A0150910B011A83F8
:1013F00009838091040390910503A0910603B091A5
:1014000007038B839C83AD83BE83BE016F5F7F4FD9
:101410008FEE92E00E94A91326960FB6F894DEBFD5
:101420000FBECDBFDF91CF911F910F910895CF9245
:10143000DF92EF92FF920F931F93CF93DF9300D031
:1014400000D000D0CDB7DEB77C018FEE92E00E94D5
:101450004014811128C08FEE92E00E94061443ECE4
:10146000C42E42E0D42E40910A0150910B01DA8241
:10147000C982009104031091050320910603309165
:1014800007030B831C832D833E83BE016F5F7F4F59
:101490008FEE92E00E94A913892B29F3B7018FEEFA
:1014A00092E00E94E23226960FB6F894DEBF0FBE9D
:1014B000CDBFDF91CF911F910F91FF90EF90DF9003
:1014C000CF900895EF92FF920F931F93CF93DF93E6
:1014D000CDB7DEB7CD5AD1090FB6F894DEBF0FBE37
:1014E000CDBF6EE271E0CE0188559F4F0E947A34E5
:1014F00010920C038FEE92E00E94E3128C01009791
:1015000059F08FEE92E00E94EC12682FCE018855C0
:101510009F4F0E944C35EECF6EE271E0CE018855B0
:101520009F4F0E948C359E012F5F3F4F79018111A3
:101530005FC086ED91E09A838983C756DF4F198299
:101540001882C959D040C455DF4F48815981CC5ABF
:10155000D04020E030E06FE974E0CE0188559F4F25
:101560000E94AB35C556DF4FF982E882CB59D04097
:101570008FE994E0C356DF4F99838883CD59D040DB
:10158000C156DF4F99838883CF59D0408AE0CF5529
:10159000DF4F8883C15AD040CE0185569F4F0E94AD
:1015A00084057C01DC018D919C91892B19F41092AA
:1015B0000C03C2C061EA71E0CE0185569F4F0E94C4
:1015C0007A34F701028113810115110509F48BC0EA
:1015D000D80112966D917C911397CE0185569F4F3D
:1015E0000E948C35811110C0F80100811181ECCF6F
:1015F00069E173E0C9010E94A734C7010E94170A7C
:10160000C7010E940C3498C0B8016C5F7F4FCE01B7
:101610008E559F4F0E94BF08CE0185569F4F0E9456
:101620000C34BE016E557F4F89E994E00E949034DE
:10163000D70112960D911C9113970115110501F117
:10164000F8016281738188EA91E00E94443C892B11
:1016500021F0D8010D911C91F0CFF8018481958182
:10166000833091050CF063C0813091050CF454C0B7
:10167000D80116960D911C91179701151105D9F5F2
:1016800060E06093950486E9EFE9F4E0DF011D92E4
:101690008A95E9F781E080930C0360E070E089E9C6
:1016A00094E00E948C35882351F08091950481301C
:1016B00031F404E010E0CE018E559F4FA2CF60E0E0
:1016C00070E089E994E00E948C35882349F02091EC
:1016D000950491E080E0211190E0092F182FEBCFC5
:1016E00001E010E0E8CF6EE271E0CE018E559F4F31
:1016F0000E947A3491CFB8018FE391E00E94443C7C
:10170000892B41F04AE050E060E070E0C8010E949F
:101710001A3BB7CF61E0B5CF892B09F4B1CFF801FF
:1017200066817781808591850E948E37AACF069742
:10173000B4F7F8016681A5CFCE0188559F4F0E946E
:101740000C34C801C355DF4F0FB6F894DEBF0FBE8F
:10175000CDBFDF91CF911F910F91FF90EF90089532
:10176000FF920F931F93CF93DF9300D000D000D050
:10177000CDB7DEB78C01CE0101960E94A734CE0111
:1017800001960E94170ACE0101960E940C340E9415
:10179000911D53E0F52EB8018FEE92E00E94E232E7
:1017A00080910803811116C00E94620A0497C1F754
:1017B0000E94A71D8FEE92E00E94401426960FB65D
:1017C000F894DEBF0FBECDBFDF91CF911F910F9177
:1017D000FF900895109208030E94911DFA94D9F683
:1017E000E9CFCF93DF93CDB7DEB72C970FB6F89440
:1017F000DEBF0FBECDBF40E952E064EF71E080E094
:1018000090E00E94491D0E9421080E94CB0963E1DB
:1018100073E0CE0101960E94A73469E173E0CE0126
:1018200007960E94A734BE016F5F7F4FCE010796D7
:101830000E94B00BCE0107960E940C34CE01019697
:101840000E940C3461E08AE00E94FB3061E08AE093
:101850000E94343161E087E00E94FB3061E087E064
:101860000E94343160E089E00E94FB3061E089E051
:101870000E943431259A239A2498229A80E58CBDBF
:1018800081E08DBD8DB58EB58CE194E00E947B0822
:101890008CE194E00E94EA2E8091EB038823C1F34F
:1018A0002C960FB6F894DEBF0FBECDBFDF91CF915F
:1018B00008950F931F93CF93DF9300D000D000D0F3
:1018C000CDB7DEB78C0169E173E0CE0101960E94CD
:1018D000A734CE0101960E94170ACE0101960E94FC
:1018E0000C34B8018FEE92E00E94E2328FEE92E06B
:1018F0000E94401426960FB6F894DEBF0FBECDBFEF
:10190000DF91CF911F910F910895CF93DF93CDB7C2
:10191000DEB768970FB6F894DEBF0FBECDBF8091DB
:101920001201882309F458C010920B030E94620A26
:1019300020910C03222309F44FC082309105E1F07D
:1019400083309105C9F0019709F046C06DE073E05E
:10195000CE0101960E94A734CE0101960E94590C37
:10196000CE0101960E940C3481E080930B038CE140
:1019700094E00E94EA2E03C00E943E082DC0809190
:101980001F03811109C08CE194E00E94EA2E80912E
:10199000EB0380931F03F3CF8091F5039091F6033F
:1019A000A091F703B091F80380932403909325034B
:1019B000A0932603B093270340E45BE46CE470E05B
:1019C00082EA95E00E943D1E82EA95E00E94FB1E9D
:1019D0001092120110920C0380910B03882341F1A5
:1019E00080910903882321F1809194048F5F809373
:1019F0009404809194048630C9F48CE194E00E94B0
:101A0000EA2E8091F5039091F603A091F703B0912F
:101A1000F8038093200390932103A0932203B093B3
:101A2000230381E080930A0310920B0310920903B1
:101A300080910A03882309F485C082EA95E00E9418
:101A4000FD1E809120039091210320912403309169
:101A50002503821B930B90939704809396046091C7
:101A60009604709197044AE0CE0101960E94F434E6
:101A700069E974E0CE010D960E94A7346FEA71E027
:101A8000CE0107960E947A34BE01635F7F4FCE017C
:101A900007960E945F3565EC71E00E947235BE01C9
:101AA0006F5F7F4F0E945F356FE971E00E94723572
:101AB000BC01CE0143960E94A734CE0107960E9436
:101AC0000C34CE010D960E940C34CE0101960E947A
:101AD0000C3463E173E0CE0101960E94A734BE018D
:101AE0006D5E7F4FCE0107960E94A734BE016F5FE7
:101AF0007F4FCE0107960E94B00BCE0107960E9441
:101B00000C34CE0101960E940C3410920A0381E03D
:101B1000809312011092200310922103109222034D
:101B2000109223031092240310922503109226038F
:101B300010922703109294040E943E08CE0143960F
:101B40000E940C3468960FB6F894DEBF0FBECDBF6E
:101B5000DF91CF910895CF93CFB7F89480914E0540
:101B6000811127C0E2E9F4E08491EEE7F4E094917A
:101B7000E82FF0E0EE0FFF1FEA55FB4FA591B4915F
:101B80008C91892321F461E08AE00E94343161E084
:101B90008AE00E94FB308CB580618CBD8CB580647E
:101BA0008CBD61E08DE00E94FB3061E08BE00E9423
:101BB000FB3080914E058F5F80934E05CFBFCF9154
:101BC00008950F9300E020E040E060E08FE495E0AE
:101BD0000E9453320F910895FB0142815381648129
:101BE0007581FC0142835383648375831782168257
:101BF0000895FB0120E080E090E06AE0319133231A
:101C000009F170ED730F7A3080F4DC016A9FC00136
:101C10006B9F900D1124C097830F911D37FD9A95EE
:101C20008F3F910559F350F314C03E3291F42330A5
:101C300081F0DA01A20FB11D12968C932F5F80E024
:101C400090E0DCCF233029F4FA01858381E090E035
:101C5000089580E090E008950F9300E020E040E0D8
:101C600060E085E595E00E9453320F910895AF92B0
:101C7000BF92CF92DF92EF92FF920F931F93CF9379
:101C8000DF9300D000D01F92CDB7DEB78C017B016F
:101C90000E942E30F80177836683762767277627A0
:101CA0007A836983085F1F4F42E050E0BE016F5F97
:101CB0007F4FC8010E94D11481E090E09C838B8308
:101CC00042E050E0BE016D5F7F4FC8010E94D11419
:101CD00080E091E09C838B8342E050E0BE016D5F29
:101CE0007F4FC8010E94D1141C821B8242E050E049
:101CF000BE016D5F7F4FC8010E94D11442E050E0E9
:101D0000BE016D5F7F4FC8010E94D11442E050E0D8
:101D1000BE016D5F7F4FC8010E94D1146701F601BB
:101D20008081882311F1F7016F018191811115C024
:101D30005601AE18BF081A141B0494F4AD8241E09A
:101D400050E0BE016B5F7F4FC8010E94D114A50116
:101D5000B701C8010E94D11403C08E3229F7E8CF21
:101D60007601FFEFEF1AFF0ADACF1D8241E050E063
:101D7000BE016B5F7F4FC8010E94D114E12CFF248C
:101D8000F394FC82EB8242E050E0BE016D5F7F4F36
:101D9000C8010E94D114FC82EB8242E050E0BE01F7
:101DA0006D5F7F4FC8010E94D11481E090E00F90D9
:101DB0000F900F900F900F90DF91CF911F910F9187
:101DC000FF90EF90DF90CF90BF90AF9008954F922B
:101DD0005F926F927F928F929F92AF92BF92CF92BB
:101DE000DF92EF92FF920F931F93CF93DF93CDB7C4
:101DF000DEB763970FB6F894DEBF0FBECDBF7C0190
:101E00005B016A010E942E302B013C018701085FB3
:101E10001F4F4501A12CB12CC8010E947115181645
:101E2000190694F00E942E306419750986099709E5
:101E300086169706A806B906D0F062E370E080E047
:101E400090E00E945D30E8CFF701428153816481C8
:101E50007581808D918DA28DB38D481759076A07C2
:101E60007B0741F4848D958DC59721F406C08FEFD3
:101E70009FEFFAC08EEF9FEFF7C0C8010E94951444
:101E80000C97ECF04CE050E0BE016F5F7F4FC80153
:101E90000E940E156C818B810E94E2339A8B898B94
:101EA000F701E680F7806A8189810E94E233E816B3
:101EB000F90641F489899A8997FF04C009C08DEF1A
:101EC0009FEFD2C0C8010E94AF148CEF9FEFCCC02F
:101ED0008F709270892B31F0C8010E94AF148BEF84
:101EE0009FEFC2C068858F810E94E2335C0100973A
:101EF00019F0E12CF12C23C0C8010E94AF148AEF25
:101F00009FEFB2C041E050E0BE01635F7F4FC80168
:101F10000E940E158D8581111AC08D858111F2CF19
:101F2000C8010E94E514C8010E94E514C8010E947E
:101F3000E514C8010E94E514FFEFEF1AFF0A6E8155
:101F40008D810E94E233E816F906E0F20AC08D8521
:101F50009FEF980F9D87882301F3C8010E94E51425
:101F6000F6CFE12CF12C41E050E0BE016D5E7F4FD9
:101F7000C8010E940E158B89982F907C61F48823EC
:101F800071F08B899FEF980F9B8B882341F0C801DC
:101F90000E94E514F6CFC8010E94E5141B8A8B89C4
:101FA0008111E1CF42E050E0BE01615F7F4FC80187
:101FB0000E940E1542E050E0BE01635F7F4FC801F2
:101FC0000E940E15C8010E94E514C8010E94E51484
:101FD000C8010E94E514C8010E94E51442E050E0E7
:101FE000BE016F5E7F4FC8010E940E158F859889D4
:101FF0008115914029F48D859E858115914019F0B8
:10200000812C912C16C089899A898115944031F0D0
:10201000C8010E94AF1487EF9FEF26C0B6016E5F24
:102020007F4F44E050E0C8010E940E1581E090E02F
:102030001BC089899A899827892798278816990625
:1020400038F4C8010E94E5142FEF821A920AF1CFEA
:102050008FEFE81AF80AEA14FB0409F084CFC801EC
:102060000E94AF1486EF9FEF63960FB6F894DEBF21
:102070000FBECDBFDF91CF911F910F91FF90EF90D9
:10208000DF90CF90BF90AF909F908F907F906F9098
:102090005F904F9008958F929F92AF92BF92CF9290
:1020A000DF92EF92FF920F931F93CF93DF9300D0B5
:1020B00000D000D0CDB7DEB78C015B016A010E9471
:1020C000F90D4C01009709F05DC0F8014281538180
:1020D000648175818091570590915805A0915905AB
:1020E000B0915A05481759076A077B0709F44EC093
:1020F0000E942E307801F8E0EF0EF11C6F70772708
:102100007C5FC7010E944415813009F043C083EC15
:1021100092E09A838983F80182819381A481B581B9
:102120008B839C83AD83BE8345E350E0BE016F5F2C
:102130007F4FC7010E94C514892B19F4812C912C63
:102140001DC0B501C8010E94370E892BB9F3C70124
:102150000E94CD14892B91F333E0A32EB12CA6015C
:1021600068E873E1C8010E94E70E4C01F1E0AF1A84
:10217000B10821F08F3F2FEF920789F3C7010E942A
:10218000B01408C088248394912C04C09EEF892E3B
:1021900099249A94C40126960FB6F894DEBF0FBE18
:1021A000CDBFDF91CF911F910F91FF90EF90DF9006
:1021B000CF90BF90AF909F908F90089520914D0544
:1021C000222399F03FB7F89420914D05213059F41E
:1021D0002DB320934B054DB320914C05209524231E
:1021E0002DBB3FBF02C030934B058CBD9DBD0895F4
:1021F00080914D05882361F09FB7F89420914D059B
:1022000080914B05213019F48DBB9FBF08958FBF7E
:10221000089544E050E0BC0181E090E00C94401B44
:1022200044E050E0BC0185E090E00C94401B44E0A9
:1022300050E0BC018FE090E00C94401B8F929F9285
:10224000AF92BF92CF92DF92EF92FF920F931F93C4
:10225000CF93DF9300D0CDB7DEB74C016A015901AF
:1022600085E895E069837A830E94D81A80E590E03A
:102270000E94DE1046E050E069817A8189E090E0BA
:102280000E94401BC60102960E941711C8010296C7
:102290000E940911C70102960E9410110E94F810B5
:1022A000F5014281538164817581F4014283538336
:1022B000648375830F900F90DF91CF911F910F91E1
:1022C000FF90EF90DF90CF90BF90AF909F908F9056
:1022D00008956F927F928F929F92AF92BF92CF920A
:1022E000DF92EF92FF920F931F93CF93DF93CDB7BF
:1022F000DEB76E970FB6F894DEBF0FBECDBF6C0190
:102300005B017A014901380100E02FEF4FEF6FEFD9
:10231000CE0149960E94533223EC32E03A8329835E
:102320008B8D9C8DAD8DBE8D8B839C83AD83BE8349
:1023300038872F83F30182819381A481B5818987B6
:102340009A87AB87BC873E872D87F4018281938172
:10235000A481B5818F87988BA98BBA8B3C8B2B8BF3
:10236000F70142815381648175814D8B5E8B6F8B48
:10237000788FCE0101967C018E01095F1F4F9E016F
:10238000235F3F4FAE014D5E5F4FB501C6010E9416
:102390001E116E960FB6F894DEBF0FBECDBFDF9153
:1023A000CF911F910F91FF90EF90DF90CF90BF9052
:1023B000AF909F908F907F906F900895CF92DF9213
:1023C000EF92FF920F931F93CF93DF93CDB7DEB7BA
:1023D00068970FB6F894DEBF0FBECDBF6B017901D1
:1023E000DA0112964D915D916D917C9115974D8B0F
:1023F0005E8B6F8B788FA3ECB2E0BA83A98321E068
:10240000288F0D891E892F89388D0B831C832D837E
:102410003E83B887AF83F701028113812481358120
:1024200009871A872B873C87BE87AD874F87588BD4
:10243000698B7A8B8E010F5F1F4F9E01295F3F4F83
:10244000AE01435F5F4FB6010E94691168960FB6F7
:10245000F894DEBF0FBECDBFDF91CF911F910F91DA
:10246000FF90EF90DF90CF9008950F931F93CF933D
:10247000DF93CDB7DEB762970FB6F894DEBF0FBE1D
:10248000CDBFDB01FA0142815381648175814F87A1
:10249000588B698B7A8BE3ECF2E0FA83E98321E0D5
:1024A0002A8B0F85188929893A890B831C832D83F0
:1024B0003E83F887EF8349875A876B877C879E0125
:1024C0002F5F3F4FAE01495F5F4FBD010E94DE119C
:1024D00062960FB6F894DEBF0FBECDBFDF91CF91ED
:1024E0001F910F91089523EC32E0FC01318320838A
:1024F000FB014281538164817581FC0142835383D6
:102500006483758308950F9300E020E040E060E06D
:102510008BE695E00E9453328BE595E00F910C9489
:10252000493281E086270895862F0895DC01ED91D8
:10253000FC91048CF58DE02D099591E08927089593
:10254000CF93DF931F92CDB7DEB76983DC01ED91A6
:10255000FC910280F381E02D41E050E0BE016F5F0D
:102560007F4F09950F90DF91CF91089521E0FC01F5
:102570008485843009F420E0822F0895FC0194853D
:10258000FB018485981303C081E0943009F480E056
:1025900008950F931F93CF93DF93EC018A018C85ED
:1025A000843021F00E947A18892B39F481E090E080
:1025B0009B838A8380E090E001C0C801DF91CF91C6
:1025C0001F910F910895FC018485843011F00C94C3
:1025D000711980E090E00895CF93DF931F92CDB7FB
:1025E000DEB741E050E0BE016F5F7F4FFC018485A4
:1025F0000E941119181619061CF4898190E002C076
:102600008FEF9FEF0F90DF91CF910895FC018485AC
:102610000C9411190F931F93CF93DF931F92CDB793
:10262000DEB78C01DC01ED91FC910480F581E02D99
:102630000995892B51F0BE016F5F7F4FF8018485AA
:102640000E949C19898190E002C08FEF9FEF0F904C
:10265000DF91CF911F910F910895FC0184850C9417
:10266000CB19CF92DF92EF92FF920F931F93CF93EC
:10267000DF93CDB7DEB7AF970FB6F894DEBF0FBECE
:10268000CDBF7C018B016A01CE0101960E944932C7
:10269000CE0109960E945716CE018A960E944932B1
:1026A0006BE575E0CE0184960E947312BE016C5DED
:1026B0007F4FCE0101960E94EC0DAE01465D5F4F4B
:1026C000B801CE0101960E944B1081309105C1F4F2
:1026D000D701ED91FC910484F585E02D83EC92E027
:1026E0009DA38CA30CA51DA52EA53FA50EA31FA3DE
:1026F00028A739A7A601BE016C5D7F4FC7010995C8
:10270000AF960FB6F894DEBF0FBECDBFDF91CF916D
:102710001F910F91FF90EF90DF90CF900895FC01F3
:102720001382128248EE53E060E070E044835583E8
:102730006683778384EE91E09183808384E084874D
:102740000895FC018485843011F00C94561780E0C4
:102750000895DF92EF92FF920F931F93CF93DF9331
:10276000EC017B018A018C85843009F045C0D12CB5
:102770008D2D0E945617811102C0DC8607C08B7F09
:102780008831D9F3D39484E0D812F2CF8C85843089
:1027900099F120911301309114012F5F3F4F11F4F3
:1027A00020E030EC30931401209313014091130189
:1027B0005091140120E061E00E94A817B7016E5FFC
:1027C0007F4FA8018C850E94FC17811103C084E013
:1027D0008C8712C0CE010E94A113873151F061E0B5
:1027E00070E080E090E00E945D30CE010E94A11375
:1027F000ECCF81E090E002C080E090E0DF91CF91EB
:102800001F910F91FF90EF90DF900895CF92DF928C
:10281000EF92FF92CF93DF93EC018C85843049F1E6
:102820000E9454180E942E306B017C01CE010E9440
:10283000A1138823A1F061E070E080E090E00E94A5
:102840005D300E942E306C197D098E099F09683E0B
:1028500073408105910550F38C850E947E17EC85AD
:10286000F0E0EE0FFF1FED59FA4F1182108284E065
:102870008C87DF91CF91FF90EF90DF90CF900895FC
:10288000CF93DF93EC018C858430D1F0CE010E9490
:10289000A1138431A9F0882399F0883189F08C3113
:1028A00069F4E881F9810480F581E02DCE01099574
:1028B00021E0892B09F420E0822F03C081E001C0D0
:1028C00080E0DF91CF9108950F9300E020E040E099
:1028D00060E081E795E00E9453320F9108950F93D5
:1028E00000E020E040E060E087E795E00E9453329E
:1028F0000F910895DC01ED91FC91008CF18DE02D9C
:10290000099423EC32E0FC0131832083FB014089F0
:10291000518962897389FC0142835383648375837F
:102920000895FC01848995890895FC01818D928D1B
:102930000895CF93DF931F92CDB7DEB76983DC0193
:10294000ED91FC910280F381E02D41E050E0BE0169
:102950006F5F7F4F09950F90DF91CF910895089594
:10296000CF93DF93EC01888D843061F00E947E1755
:10297000E88DF0E0EE0FFF1FED59FA4F1182108243
:1029800084E0888FDF91CF910895FC01178A168A21
:102990006E5F7F4F808D0C94131AFC01808D0C9418
:1029A000591ACF93DF93EC019A018E899F89AB016D
:1029B000BC01888D0E94CC192E893F89280F391FB0
:1029C0003F8B2E8BDF91CF9108950F931F93CF9361
:1029D000DF931F92CDB7DEB78C01FC01818D928D04
:1029E000892B59F041E050E0BE016F5F7F4F808D31
:1029F0000E941119181619061CF08FEF9FEF08C0DE
:102A0000F801818D928D0197928F818F898190E05D
:102A10000F90DF91CF911F910F910895CF93DF9386
:102A2000EC01898D9A8D009719F48FEF9FEF10C0FC
:102A30004817590708F0AC01888D0E941119181623
:102A400019069CF7298D3A8D281B390B3A8F298F4F
:102A5000DF91CF910895CF93DF931F92CDB7DEB76B
:102A6000FC01218D328D232B49F0BE016F5F7F4F1A
:102A7000808D0E949C19898190E002C08FEF9FEFAA
:102A80000F90DF91CF910895FF920F931F93CF93F3
:102A9000DF93EC018B01888D8430E1F4F12C8F2DD4
:102AA0000E945617811102C0F88E06C08831E1F3EA
:102AB000F39484E0F812F3CF888D843059F01D87A9
:102AC0000C871A8E198E20E0A80162E00E94A817D8
:102AD00081E001C080E0DF91CF911F910F91FF90C5
:102AE00008950F931F93CF93DF93CDB7DEB7289749
:102AF0000FB6F894DEBF0FBECDBF8C01F801818DFB
:102B0000928D892B49F0D801ED91FC910680F781D7
:102B1000E02DC8010995F2CF808D0E947119181619
:102B2000190644F548E050E0BE016F5F7F4FD801C1
:102B300058968C910E94111918161906ECF4BE01D2
:102B40006F5F7F4FC8010E960E945F328D8190E0CB
:102B5000982F88272E81820F911DF801958B848BE9
:102B60008F8190E0982F88272885820F911D928F62
:102B7000818F02C080E090E028960FB6F894DEBF07
:102B80000FBECDBFDF91CF911F910F9108958F920E
:102B90009F92AF92BF92CF92DF92EF92FF920F93EC
:102BA0001F93CF93DF9300D000D000D0CDB7DEB716
:102BB0008C017B014A01FC01808D843009F063C0E7
:102BC00073E0A72E74E0B72EC12CD12CC5010E9452
:102BD0006F1B811103C0F801C08E0AC08831D9F380
:102BE000FFEFCF1ADF0AB394E4E0CE16D10471F7F9
:102BF000F801808D843009F446C096E0E5E1F1E00B
:102C0000DE01119601900D929A95E1F7F7019381FB
:102C10009F779C8394819D8395819E83B7016E5F8E
:102C20007F4F90E0982F882744E050E0845F9B4FCF
:102C30000E94401BF801808D90E00496F82EEE244F
:102C4000692DC70140960E94B61A682DC7014196AA
:102C50000E94B61AF801808D90E0982F882746E0F0
:102C600050E0BE016F5F7F4F8A5F9B4F0E94401B09
:102C7000F801128E118E20E8A40162E0808D0E947E
:102C8000A81781E001C080E026960FB6F894DEBF59
:102C90000FBECDBFDF91CF911F910F91FF90EF90AD
:102CA000DF90CF90BF90AF909F908F900895CF937B
:102CB000DF93EC011B821A8248EE53E060E070E083
:102CC0004C835D836E837F8388E092E09983888361
:102CD000CE010E960E94493284E0888FDF91CF9119
:102CE0000895CF92DF92EF92FF920F931F93CF93AD
:102CF000DF93CDB7DEB7AF970FB6F894DEBF0FBE48
:102D0000CDBF7C018B016A01CE0101960E94493240
:102D1000CE0109960E945716CE018A960E9449322A
:102D20006BE575E0CE0184960E947312BE016C5D66
:102D30007F4FCE0101960E94EC0DAE01465D5F4FC4
:102D4000B801CE0101960E944B1081309105C1F46B
:102D5000D701ED91FC910088F189E02D83EC92E0A0
:102D60009DA38CA30CA51DA52EA53FA50EA31FA357
:102D700028A739A7A601BE016C5D7F4FC701099541
:102D8000AF960FB6F894DEBF0FBECDBFDF91CF91E7
:102D90001F910F91FF90EF90DF90CF9008950F93C8
:102DA00000E020E040E060E08DE795E00E945332D3
:102DB0000F910895CF92DF92EF92FF920F9330E040
:102DC000C12CF2E1DF2EFAE7EF2EF12C4C155D0558
:102DD0006E057F0540F4F694E794D794C7943F5F5F
:102DE0003630A1F737E041E04327211102C050E718
:102DF00001C050E5242F30E03595279523700C70E5
:102E0000202B252BFC012083417041830F91FF90E3
:102E1000EF90DF90CF90089590E0982F882744E0BE
:102E200050E0845F9B4F0C94401B282F30E02C5FB8
:102E30003F4F922F8827860F971F0C946F1B62E0DD
:102E400070E00C941517FB01282F30E02C5F3F4FEA
:102E5000922F8827642F8E0F9F1F0C94B61ACF9342
:102E6000DF93C82FD62F472F64E070E00E9423170E
:102E70004D2F65E070E08C2FDF91CF910C942317DC
:102E8000462F62E070E00C942317CF93DF93C82F96
:102E9000D62F472F60E170E00E9423174D2F61E18C
:102EA00070E08C2FDF91CF910C9423170F931F9319
:102EB000CF93DF9300D01F92CDB7DEB7182F00E07D
:102EC00021E040E059E06DE370E0CE0101960E9400
:102ED000DA1689819A810E94DE1063E070E0812F0A
:102EE0000E9415178B830E94F8108B810F900F9012
:102EF0000F90DF91CF911F910F9108950F931F9322
:102F0000CF93DF9300D0CDB7DEB7182F00E021E0DC
:102F100040E059E06DE370E0CE0101960E94DA16C0
:102F200089819A810E94DE1040E150E0612F85E89E
:102F300095E00E94391D6FEF812F0E9440170E947B
:102F4000F8100F900F90DF91CF911F910F9108957E
:102F5000CF92DF92EF92FF920F931F93CF93DF9365
:102F600000D0CDB7DEB7182FD62E7A01C22E8FEF44
:102F7000860F8530A8F5812F0E947E1700E021E0A2
:102F800040E059E06DE370E0CE0101960E94DA1650
:102F900089819A810E94DE104D2D4C2960E070E0FD
:102FA000812F0E942317E114F10411F0B7010AC028
:102FB00060918305709184056F5F7F4F70938405E6
:102FC00060938305812F0E942F1741E050E0612F0D
:102FD00085E895E00E94391D0E94F81081E001C04B
:102FE00080E00F900F90DF91CF911F910F91FF9094
:102FF000EF90DF90CF900895CF92DF92EF92FF9203
:103000000F931F93CF93DF9300D0CDB7DEB7182F68
:103010007B016A01FB0180818F3F51F481818F3FE9
:1030200099F482818F3F81F483818F3F69F430C0AE
:1030300081110AC0FB018181811106C08281811149
:1030400003C08381882321F1C114D10409F100E078
:1030500021E040E059E06DE370E0CE0101960E946E
:10306000DA1689819A810E94DE10B701812F0E94B1
:103070000C17B601812F0E94451744E050E0612FE4
:1030800085E895E00E94391D0E94F81081E001C09A
:1030900080E00F900F90DF91CF911F910F91FF90E3
:1030A000EF90DF90CF9008950F931F93CF93DF930E
:1030B00000D0CDB7DEB7182F00E021E040E059E0A6
:1030C0006DE370E0CE0101960E94DA1689819A8143
:1030D0000E94DE1048E050E0612F85E895E00E94F4
:1030E000391D0E94F8100F900F90DF91CF911F9122
:1030F0000F910895BF92CF92DF92EF92FF920F93BC
:103100001F93CF93DF9300D01F92CDB7DEB7B82EB9
:103110006B017A01413088E0580718F0E12C98E003
:10312000F92E00E021E040E059E06DE370E0CE01CF
:1031300001960E94DA1689819A810E94DE106B2D19
:1031400085E895E00E94A71B8C0163E070E08B2D61
:103150000E9415178B830E94F8108B81873111F024
:103160008C3131F40E94E32F0E151F05D0F202C0FE
:10317000E12CF12C00E021E040E059E06DE370E04B
:10318000CE0101960E94DA1689819A810E94DE1092
:103190009701A6016B2D85E895E00E94661C40E230
:1031A00050E06B2D85E895E00E94391D8B2D0E9423
:1031B0001F1784FD22C063E070E08B2D0E9415175D
:1031C000811108C00E94F8108B2D0E947E1780E0AC
:1031D00090E01AC00E94F8100E94E32F00E021E066
:1031E00040E059E06DE370E0CE0101960E94DA16EE
:1031F00089819A810E94DE10D9CF60E18B2D0E94D7
:1032000040170E94F810C7010F900F900F90DF91A8
:10321000CF911F910F91FF90EF90DF90CF90BF90D3
:103220000895AF92BF92CF92DF92EF92FF920F93E9
:103230001F93CF93DF9300D0CDB7DEB7182F5B017C
:103240006A0100E021E040E059E06DE370E0CE016A
:1032500001960E94DA1689819A810E94DE10612F00
:1032600085E895E00E94DB1B7C010097A1F463E0F8
:1032700070E0812F0E941517843119F1882309F11C
:1032800021E030E08C3111F420E030E0EE24FF2426
:10329000E21AF30A16C0C816D9060CF476011E14F9
:1032A0001F047CF400E09701A501612F85E895E0FB
:1032B0000E94E91C40E450E0612F85E895E00E94FF
:1032C000391D0E94F810C7010F900F90DF91CF9128
:1032D0001F910F91FF90EF90DF90CF90BF90AF9034
:1032E00008950F931F93CF93DF9300D000D0CDB7F5
:1032F000DEB7182F00E021E040E059E06DE370E018
:10330000CE0101960E94DA1689819A810E94DE1010
:10331000612F85E895E00E94DB1B8B839C830E94D4
:10332000F8108B819C810F900F900F900F90DF9180
:10333000CF911F910F910895EF92FF920F931F93DA
:10334000CF93DF9300D0CDB7DEB7182F7B0100E01D
:1033500021E040E059E06DE370E0CE0101960E946B
:10336000DA1689819A810E94DE1001E021E030E0C6
:10337000A701612F85E895E00E94E91C0E94F810E2
:1033800081E090E00F900F90DF91CF911F910F910E
:10339000FF90EF90089508959F92AF92BF92CF92C1
:1033A000DF92EF92FF920F931F93CF93DF9300D0A2
:1033B000CDB7DEB7982E6B015A01790100E021E00C
:1033C00040E059E06DE370E0CE0101960E94DA160C
:1033D00089819A810E94DE10692D85E895E00E941E
:1033E000A71B8E159F0530F4692D85E895E00E9496
:1033F000A71B7C0187019501A601692D85E895E051
:103400000E94F71B0E94F810C7010F900F90DF91E8
:10341000CF911F910F91FF90EF90DF90CF90BF90D1
:10342000AF909F900895CF92DF92EF92FF920F930B
:103430001F93CF93DF9300D0CDB7DEB7182F7B015A
:103440006A01FB018081811109C08181811106C05F
:103450008281811103C083818823F1F0C114D104DA
:10346000D9F000E021E040E059E06DE370E0CE01EA
:1034700001960E94DA1689819A810E94DE10B701B6
:10348000812F0E940C17B601812F0E9445170E94C0
:10349000F81081E090E002C080E090E00F900F9083
:1034A000DF91CF911F910F91FF90EF90DF90CF9020
:1034B00008950F931F93CF93DF9300D0CDB7DEB75E
:1034C000182F00E021E040E059E06DE370E0CE010C
:1034D00001960E94DA1689819A810E94DE1040E2EC
:1034E00050E0612F85E895E00E94391D812F0E94F0
:1034F0001F1784FD21C0812F0E941F1783FF09C061
:1035000068E1812F0E9440170E94F81080E090E04F
:103510001BC00E94F8100E94E32F00E021E040E071
:1035200059E06DE370E0CE0101960E94DA168981C0
:103530009A810E94DE10DACF60E1812F0E9440174D
:103540000E94F81081E090E00F900F90DF91CF91F2
:103550001F910F9108958EBD00000DB407FEFDCFA1
:103560008EB5089528980895289A08951F93CF93AB
:10357000DF9300D0CDB7DEB7182F6A8399830E94FE
:10358000B21A80EF0E94AB1A9981892F0E94AB1A60
:10359000812F0E94AB1A6A81862F0E94AB1A0E946B
:1035A000B41A81E00F900F90DF91CF911F91089591
:1035B000CF93DF93EC016CE271E080E090E00E9439
:1035C0005D300E94AB0D209A80914D05882399F0C3
:1035D0009FB7F89480914D05813059F48DB3809355
:1035E0004B052DB380914C05809582238DBB9FBFE9
:1035F00002C090934B0580E58CBD1DBC60E880E067
:1036000090E00E94B61A65E58BE190E00E94B61A40
:1036100065E58AE190E00E94B61A80914D05882305
:1036200061F09FB7F89420914D0580914B052130B2
:1036300019F48DBB9FBF01C08FBF80E090E49983D8
:10364000888380E090E69987888780E098E49B8370
:103650008A8380E098E69B878A8780E090E59D8357
:103660008C8380E090E79D878C8780E098E59F833E
:103670008E8380E098E79F878E87DF91CF910895B2
:10368000CF92DF92EF92FF920F931F93CF93DF932E
:10369000EC017A018B016C01C40ED51ECC15DD0541
:1036A000A1F00E94B21A80EF0E94AB1A8D2F0E94E7
:1036B000AB1A8C2F0E94AB1A2196F80181918F01D1
:1036C0000E94AB1A0E94B41AE9CFC701DF91CF91D3
:1036D0001F910F91FF90EF90DF90CF9008951F936F
:1036E000CF93DF931F92CDB7DEB7182F99830E9437
:1036F000B21A8FE00E94AB1A9981892F0E94AB1AEF
:10370000812F0E94AB1A80E00E94AB1A89830E942D
:10371000B41A89810F90DF91CF911F9108951F9363
:10372000CF93DF93182F60E270E00E941517C82F27
:10373000D0E061E270E0812F0E941517DC2FCC27CA
:103740009E01282BC901DF91CF911F910895FF920F
:103750000F931F93CF93DF93F62EC0E0D0E08F2D11
:103760000E948F1B8C01009721F08F2D0E948F1BD0
:10377000EC01C017D10799F7CE01DF91CF911F91CE
:103780000F91FF9008951F93CF93DF93182F66E258
:1037900070E00E941517C82FD0E067E270E0812F1B
:1037A0000E941517DC2FCC279E01282BC901DF9121
:1037B000CF911F910895FF920F931F93CF93DF93A3
:1037C000F62EC0E0D0E08F2D0E94C31B8C01009725
:1037D00021F08F2D0E94C31BEC01C017D10799F770
:1037E000CE01DF91CF911F910F91FF9008956F92BD
:1037F0007F929F92AF92BF92CF92DF92EF92FF9211
:103800000F931F93CF93DF931F92CDB7DEB7D82EC0
:10381000962E3A01590164E270E0892D99830E9445
:103820001517E82EF12C65E270E0892D0E9415171E
:10383000FE2CEE24E82AE60CF71C970137706D2C5D
:103840009981792E690C711C690C711CD301ED9161
:10385000FC91E20FF31FC901800F911F8130984046
:10386000A0F0C12C48E0D42EC21AD30AA601B5019B
:10387000CF010E94401BA8014C195D09B5016C0DD8
:103880007D1DF3018081918103C0A801B501CF01A5
:103890000E94401BE00EF11E4F2D64E270E0892D66
:1038A0000E9423174E2D65E270E0892D0F90DF9165
:1038B000CF911F910F91FF90EF90DF90CF90BF902D
:1038C000AF909F907F906F900C9423170F931F934E
:1038D00089019A0140E050E00E94F71B1F910F916F
:1038E0000895CF92DF92EF92FF920F931F93CF93A1
:1038F000DF93EC017A018B016C01C40ED51ECC154F
:10390000DD05A9F00E94B21A8FE00E94AB1A8D2F3C
:103910000E94AB1A8C2F0E94AB1A219680E00E9465
:10392000AB1AF80181938F010E94B41AE8CFC70146
:10393000DF91CF911F910F91FF90EF90DF90CF908B
:103940000895AF92BF92CF92DF92EF92FF920F93C2
:103950001F93CF93DF9300D0CDB7DEB75A8349834F
:103960005901E981FA81F7707C01E60EF11CE60E3F
:10397000F11CD70118968D919C9119978E0F9F1F5E
:1039800098012E0F3F1F2130384098F0C12C68E07D
:10399000D62ECE1ADF0AA601B5010E94711CA8011D
:1039A0004C195D09B5016C0D7D1DF7018085918570
:1039B00002C0A801B5010F900F90DF91CF911F9128
:1039C0000F91FF90EF90DF90CF90BF90AF900C944D
:1039D000711C8F929F92AF92BF92CF92DF92EF9223
:1039E000FF920F931F93CF93DF936C01962E5A0192
:1039F0007901802E68E270E0892D0E941517C82F8A
:103A0000D0E069E270E0892D0E941517DC2FCC27E9
:103A1000C82B87019501AE01692DC6010E94A11C2A
:103A200081101AC0CE0DDF1D4D2F68E270E0892D88
:103A30000E9423174C2F69E270E0892DDF91CF910E
:103A40001F910F91FF90EF90DF90CF90BF90AF90BC
:103A50009F908F900C942317DF91CF911F910F911E
:103A6000FF90EF90DF90CF90BF90AF909F908F909E
:103A70000895CF93C62F61E070E08C2F0E9423172A
:103A800061E070E08C2F0E9415178111F9CFCF9162
:103A90000895209170002E7F209370002091B00037
:103AA0002C7F2093B0002091B100277F2093B1009C
:103AB0002091B6002F7D2093B600209170002D7FBD
:103AC000209370002091B10024602093B1002091D8
:103AD000B1002C7F2093B10026E030E030939605B2
:103AE00020939505611571058105910569F481E0C3
:103AF00090E0A0E0B0E080939E0590939F05A09396
:103B0000A005B093A10508C060939E0570939F0522
:103B10008093A0059093A10550939D0540939C052B
:103B20000895109298051092990510929A05109296
:103B30009B0510929705809195059091960580932D
:103B4000B200E0E7F0E08081816080830895E0E7E3
:103B5000F0E080818E7F8083089580919805909118
:103B60009905A0919A05B0919B050196A11DB11DE3
:103B70008093980590939905A0939A05B0939B051F
:103B8000409198055091990560919A0570919B0517
:103B900080919E0590919F05A091A005B091A105EF
:103BA000481759076A077B07B0F080919705811184
:103BB00012C081E0809397051092980510929905A4
:103BC00010929A0510929B05E0919C05F0919D053D
:103BD00009951092970508951F920F920FB60F92B4
:103BE00011242F933F934F935F936F937F938F9302
:103BF0009F93AF93BF93EF93FF938091950590911F
:103C000096058093B2000E94AD1DFF91EF91BF9188
:103C1000AF919F918F917F916F915F914F913F9164
:103C20002F910F900FBE0F901F9018951F920F921B
:103C30000FB60F9211242F933F934F935F936F937F
:103C40007F938F939F93AF93BF93EF93FF93E091F5
:103C5000A605F091A7050995FF91EF91BF91AF914E
:103C60009F918F917F916F915F914F913F912F9194
:103C70000F900FBE0F901F901895FC01A3E0440F0A
:103C8000551F661F771FAA95D1F74115510581E091
:103C90006807710514F481E00EC033E075956795EF
:103CA000579547953A95D1F74115510581E0680739
:103CB00071051CF482E0828331C023E0759567951D
:103CC000579547952A95D1F74115510581E0680729
:103CD000710514F483E0EFCF92E0759567955795E1
:103CE00047959A95D1F74115510581E0680771050F
:103CF00014F484E0E0CF82E0759567955795479579
:103D00008A95D1F785E082834115510581E06807E6
:103D1000710524F04FEF5FEF60E070E08FB78383B1
:103D2000F8945183408350938700409386008381A9
:103D30008FBF80918100887F809381008091810076
:103D40009281892B8093810078940895109280004D
:103D500020E1209381000C943D1EE1E8F0E02081F9
:103D6000DC0112968C91282B208308950F931F93CA
:103D7000CF93DF93EC018B01BA01A901141615064C
:103D80001606170614F40E943D1E1D830C8381E065
:103D900080936F00CE01DF91CF911F910F910C9412
:103DA000AD1ECF93DF93EC0180916F008E7F8093E7
:103DB0006F0083B5816083BD8FB78B83F8941092B9
:103DC0008500109284008B818FBFCE010E94AD1EB2
:103DD0008FB78B83F89480918400909185002B811C
:103DE0002FBF892BA9F38FEF86BB81E080936F00F3
:103DF000DF91CF9108950C94D11EE1E8F0E080812D
:103E0000887F808308950895CF93DF93FC01EA01B2
:103E100080819181892B39F588E790E00E94031F0A
:103E200026C088819981892B11F1DB018D919C91AC
:103E3000DC015C91238130E0241B31098081918178
:103E4000820F931FDC015C93828181508283888181
:103E50009981019799838883DB018D919C911197BA
:103E600001968D939C9342814111DBCF02C080E08B
:103E700003C08381828381E0DF91CF9108958D53C8
:103E80009F4FFC01808108958A539F4FFC018081E0
:103E90009181089583539F4FFC01608171818281DC
:103EA000938108958E529F4FFC01808191810895E6
:103EB000CF93DF93CDB7DEB727970FB6F894DEBF69
:103EC0000FBECDBFFC01EC52FF4F87E0DE01119623
:103ED00001900D928A95E1F729813A814B815C81AD
:103EE0006D817E818F8190E027960FB6F894DEBFBA
:103EF0000FBECDBFDF91CF9108958C539F4FFC0132
:103F000080819181089585529F4FFC01808191812C
:103F1000089583529F4FFC0180810895FB0180E04A
:103F200050E09F01261B370B241735071CF4919195
:103F30008927F7CF0895EF92FF920F931F93CF93A6
:103F4000DF93FB01A0E050E0CF01861B970B8417A5
:103F5000950734F48191805F8430B0F7AF5FF4CF80
:103F6000CA018A0F911D860F971F41505109FF24E6
:103F7000F394B3EF22E0E22E13E04F3FDFEF5D0753
:103F800081F1FB01E40FF51F00812A2F30E0013F92
:103F9000A1F038F4003FF9F42E0F3F1FE901188219
:103FA00010C0023F99F0033FB1F42E0F3F1FE9010B
:103FB0001883A150EA0FF11D10C02E0F3F1FE90119
:103FC000F882A150EA0FF11DB08308C02E0F3F1FE9
:103FD000E901E882F6CFE20FF31F00834150510957
:103FE000CCCFDF91CF911F910F91FF90EF9008956B
:103FF000DF92EF92FF920F931F93CF93DF93EC0129
:1040000080E090E0FE01E80FF91F148201968F33E3
:104010009105C1F78E010E571F4FF801108284E001
:104020008C8381EF8D838AE18E8381E08F8383EAA5
:104030008887CE0106967C0134E0D32E4D2DBC013D
:10404000CE010E948E1F89874D2DB701CE010E949F
:104050009B1F22EFFC012193CF0124968C1B9D0B0B
:10406000F8018083DF91CF911F910F91FF90EF9026
:10407000DF9008952EE232E0FC01318320837383C8
:104080006283ED53FF4F108235961082FB01958BB2
:10409000848B0C94F81F1F93CF93DF939C012C57B4
:1040A0003F4FF901AC014B575F4FD901C1EFD0EF42
:1040B00012EF8E2FBD01621B730B6F33710518F564
:1040C0007C91733FA9F4CD01029611966C916130F9
:1040D00049F030F0623041F0633041F470830DC03C
:1040E000D0830BC0C08309C0108307C0608305C0A4
:1040F0007083723F39F0CD01019631964F5F5F4F6B
:10410000DC01D7CF842F821BDF91CF911F910895BF
:104110000F931F93FB016181862F90E0A0E0B0E038
:104120006627782F892F9A2F028110E020E030E057
:10413000980111270027600F711F821F931F208194
:10414000620F711D811D911D038110E020E030E0A0
:10415000302F222711270027600F711F821F931F06
:104160001F910F910895EF92FF920F931F93CF939A
:10417000DF9300D0CDB7DEB78C017B01BC016C5F53
:104180007F4F4FE3FC01828193810E9406268111BB
:104190001BC08FE390E09A838983AE014F5F5F4F2E
:1041A000B8016C577F4FF801828193810E942626C7
:1041B00081110AC089819A81CF9729F4C8010E9490
:1041C0004B20F701808380E00F900F90DF91CF911B
:1041D0001F910F91FF90EF900895442389F0423092
:1041E00089F4FC01EA53FF4FDB0111962C911197E2
:1041F00030E0322F22274C91240F311D3183208350
:1042000081E0089580E00895CF92DF92EF92FF92CF
:10421000CF93DF93EC017B01442309F445C0453083
:1042200009F044C00E9488202AE030E040E050E0DD
:104230000E94E738F7018481FE01EF52FF4F80832F
:10424000DE01A753BF4FCD90DD90ED90FC9013970A
:1042500039972C153D054E055F0541F081E02C1581
:104260003D054E055F0508F080E080832D933D936A
:104270004D935C9313978081C353DF4F882381F064
:10428000211531054105510559F0BA01A9014F5FCA
:104290005F4F6F4F7F4F488359836A837B8307C08B
:1042A000288339834A835B8381E001C080E0DF910A
:1042B000CF91FF90EF90DF90CF9008954423A9F025
:1042C0004330A9F4FC01EE52FF4FDB012C9130E0AA
:1042D0002F5F3F4F11964C9150E0542F4427240FED
:1042E000351F369527953183208381E0089580E03E
:1042F0000895FB01442311F1473011F52081DC01C1
:10430000AC52BF4F2C93218111962C932281119690
:104310002C931196248130E0322F22274381240FE1
:10432000311D11963C932E931296268130E0322F48
:1043300022274581240F311D2D933C9381E0089560
:1043400080E00895442389F0433089F4FC01E5526C
:10435000FF4FDB0111962C91119730E0322F22276D
:104360004C91240F311D3183208381E0089580E03A
:1043700008952F923F925F926F927F928F929F92B9
:10438000AF92BF92CF92DF92EF92FF920F931F9363
:10439000CF93DF93CDB7DEB727970FB6F894DEBF84
:1043A0000FBECDBF8C011C0183EC280E311CF10126
:1043B0001082662309F4E6C0BE016F5F7F4FC8011B
:1043C0000E94B3208111DEC0F801EC57FF4F8081BD
:1043D000843009F0D7C031968081813F09F0D2C086
:1043E0005801F4ECAF0EB11CF801EA57FF4F808181
:1043F0008F7090E0F50191838083C980CA94CA943C
:10440000512C612CE3E0EE2EF12CD12C7724739407
:10441000C80183529F4F9B838A83EC14FD0408F0EC
:1044200091C0662041F0852D90E066246394E816E3
:10443000F90608F0612CB7016F5F7F4FF801EE0DB0
:10444000FF1DEC57FF4F2081C616D70610F421E060
:104450007AC02A31D1F4F801E60FF71FEC57FF4F6D
:104460005080560EC7010296C816D90680F3B701D0
:104470006D5F7F4F800F911FFC01EC57FF4F208134
:10448000C616D70620F3662463944B019FEF891A62
:10449000990AF801E60FF71FEC57FF4F40816B5761
:1044A0007F4F600F711F41110CC082E990E02C8397
:1044B0004D836E837F830E94031F7F816E814D81B8
:1044C0002C817401E40EF11CCE14DF0408F4BFCF7C
:1044D0006620D1F0293839F0233A09F09ECFC8017F
:1044E0000E9404212BC0442359F0413059F4800E1E
:1044F000911EF401EC57FF4F8081EA81FB8180839C
:1045000081E01CC080E01AC0233A89F038F42139D8
:1045100009F083CFC8010E94792110C0263A59F0D2
:10452000243B09F07ACFC8010E94A22107C0C8012C
:104530000E94ED2003C0C8010E945E21872509F476
:104540006CCF85CF20E0F501808191810297B1F495
:10455000F801E352FF4F8081823080F47797118217
:104560001082379610821182128213823496108242
:1045700031961182108239961182108281E0822751
:10458000F101808327960FB6F894DEBF0FBECDBF32
:10459000DF91CF911F910F91FF90EF90DF90CF901F
:1045A000BF90AF909F908F907F906F905F903F9063
:1045B0002F900895CF93DF93EC01AC89BD891097BC
:1045C00049F0ED91FC9111970190F081E02D6889FF
:1045D000CD01099580E0DF91CF910895FC01838999
:1045E0000895CF93DF93EC0180E592E00E94031FD2
:1045F00089899A89DC01ED91FC910480F581E02D97
:104600006B89099581E08F871B8A188A8C899D891F
:10461000009741F0DC01ED91FC910190F081E02DDB
:1046200060E0099580E0DF91CF910895CF92DF920D
:10463000EF92FF920F931F93CF93DF93EC01162F0E
:10464000D42EC22E81E392E00E94031F4AE050E084
:10465000612F87EB95E00E94C43388E292E00E94CC
:10466000031F4AE050E06D2D87EB95E00E94C433B4
:1046700081E292E00E94031F40E150E06C2D87EB45
:1046800095E00E94C43388E192E00E94031F40E15C
:1046900050E0602F87EB95E00E94C4338EE092E0FB
:1046A0000E94031F4AE050E06F8587EB95E00E946F
:1046B000CB338F85823018F08E85181392C01E87F9
:1046C0008D2D87702C2D2770220F220F220F02951F
:1046D000000F000F007C282B202B2D87D70113966D
:1046E0008C9113978370833061F412968C9187FFBD
:1046F00008C087ED91E00E94031F4AE050E061E0AE
:1047000007C08FE991E00E94031F4AE050E062E099
:1047100087EB95E00E94CB338F8590E0FC01EE0F94
:10472000FF1FE80FF91FEC0FFD1FD70112968C91A8
:1047300012978F70848314968C91858316828EE7EE
:1047400091E00E94031F8F8590E0FC01EE0FFF1F98
:10475000E80FF91FEC0FFD1F40E150E0648187EB8B
:1047600095E00E94C43380E791E00E94031F8F858B
:1047700090E0FC01EE0FFF1FE80FF91FEC0FFD1F8B
:1047800040E150E0658187EB95E00E94C43383E609
:1047900091E00E94031F8F8590E0FC01EE0FFF1F48
:1047A000E80FF91FEC0FFD1F40E150E0668187EB39
:1047B00095E00E94CB338F858F5F8F8782E491E0F5
:1047C0000E94031F4AE050E06F8587EB95E0DF9180
:1047D000CF911F910F91FF90EF90DF90CF900C94AD
:1047E000CB33DF91CF911F910F91FF90EF90DF902E
:1047F000CF9008953F924F925F926F927F928F92E7
:104800009F92AF92BF92CF92DF92EF92FF920F935F
:104810001F93CF93DF93CDB7DEB7EB970FB6F89426
:10482000DEBF0FBECDBF7C01462E342E522E8AE352
:1048300093E00E94031F40E150E0642D87EB95E078
:104840000E94C43382E393E00E94031F40E150E0E2
:10485000632D87EB95E00E94C43386E293E00E94CB
:10486000031F652D70E040E150E087EB95E00E946A
:104870009F33D7015196CD90DC90529753968C91EF
:10488000811166C1D601ED91FC910190F081E02D7E
:1048900060E0C60109955C01009711F486ED5DC1E9
:1048A000FC01608071806114710409F453C14701F7
:1048B000F4E08F0E911CDC0111969C928E9214965E
:1048C0005C928E01075D1F4F28E030E040E060E021
:1048D000F701818992890E946A2C182FD5016D9267
:1048E0007C92811118C179A4D601ED91FC910280CE
:1048F000F381E02D232D40E0642DC6010995F701D9
:10490000838B882309F428C198A99583282F40E038
:1049100060E0818992890E94172D182F8823F1F079
:10492000D50114961C92D601ED91FC910480F5817D
:10493000E02DD70153966C91C6010995F701138AB2
:1049400060E472E087EB95E00E94D53240E150E0F0
:10495000612F87EB95E00E94CB33F8C08EE093E0A7
:104960000E94031F40E150E0D70153966C9187EB02
:1049700095E00E94CB33F5011482D601ED91FC91B4
:104980000190F081E02DD70153966C91C6010995F5
:10499000009709F483CF272D233108F022E1FC0191
:1049A0005482211129C04AAC940141E0D7015396A9
:1049B0006C91539751968D919C9152970E94D52856
:1049C000182F8111ABC083EF92E00E94031F4AE0D1
:1049D00050E0642D87EB95E00E94CB33512C6FE9BA
:1049E000A62E62E0B62E3701F2E06F0E711C6E014A
:1049F00081E1C80ED11C36C030E08E01075D1F4F2B
:104A000040E0F7016389818992890E946A2C182FFE
:104A1000811181C0C8CFBA82A9827C826B821E8636
:104A2000188A1F8619A21AA21BA2DF82CE82D986FB
:104A3000C8868D818B878A87DD86CC868E010F5F45
:104A40001F4F252D40E0D70153966C9153975196F7
:104A50008D919C9152970E94B82CF70187858230E6
:104A600018F453945410D7CFD7011F964C9142306D
:104A700090F48DED92E00E94031F4AE050E0F701B0
:104A8000678587EB95E00E94C43389EB92E00E9432
:104A9000031F81ED62C09401D70153966C91539727
:104AA00051968D919C9152970E94D528682F88230A
:104AB00061F08AE892E06BAF0E94031F40E150E092
:104AC0006BAD87EB95E00E94C43382E792E00E94D1
:104AD000031F40E150E0F701668587EB95E00E94F7
:104AE000CB33D7011E962C911E9740E053966C91C4
:104AF000539751968D919C9152970E943C2D182F5F
:104B000081110FC081E0F701808B82E692E00E9464
:104B1000031F80E022C069E472E005C066E572E030
:104B200002C063E672E087EB95E00E94D53240E177
:104B300050E0612F87EB95E00E94CB33D701ED91D8
:104B4000FC910280F381E02DC7010995812F05C0FA
:104B500089ED03C087ED01C084EDEB960FB6F894A4
:104B6000DEBF0FBECDBFDF91CF911F910F91FF90A0
:104B7000EF90DF90CF90BF90AF909F908F907F90FD
:104B80006F905F904F903F900895FC01108A138AB8
:104B9000158A148A1586148288E085838CE38683BF
:104BA00017821086118612861386148681E0878705
:104BB00016860895CF93DF93EC0185EA92E09983FE
:104BC000888383EB92E09B838A837A8B698BCE0107
:104BD0000E94C52529893A89C901E0E0F0E0DC019D
:104BE000AA5ABF4F4D915C91452B41F4BB96EE0FF5
:104BF000FF1FE20FF31FD183C08305C031960296D9
:104C0000E031F10561F7DF91CF9108950F931F9384
:104C1000CF93FC01242F30E08B0142856389818989
:104C200092890E94E92AC82F882359F085E793E0EA
:104C30000E94031F40E150E06C2F87EB95E00E943B
:104C4000CB338C2FCF911F910F9108950F931F930A
:104C5000CF93FC019A018B014781638981899289F5
:104C60000E94612DC82F882359F080E593E00E94AF
:104C7000031F40E150E06C2F87EB95E00E94CB339F
:104C80008C2FCF911F910F910895CF92DF92EF92C9
:104C9000FF920F931F93CF93DF931F92CDB7DEB791
:104CA0006C017B018A01DC0190968C918230A9F124
:104CB00028F4882349F0813091F030C18330A1F18C
:104CC000843009F458C02AC122E0F601248385818A
:104CD0009681908787832287218781E080A3A8011E
:104CE000B701C60107960E94041F282F811109C031
:104CF0006CE672E087EB95E029830E94F43229810B
:104D00000EC1D6011596ED91FC9116978081919672
:104D10008C939197818192968C93C6014296F6016D
:104D20009683858383E080A3D60192968C9184300C
:104D300071F018F4823069F014C0853069F0813266
:104D400081F4D60191968C919197825008C0F6011A
:104D500013A287E0D60103C0F601848302C0149633
:104D60008C93F601858196819087878384818287E1
:104D7000818784E080A3D60192968C918430E9F0FB
:104D800018F4823041F07DC0853009F43FC0813293
:104D900009F46AC076C082E291E00E94031FA80174
:104DA000B701C60107960E94041F811102C020E0CE
:104DB000B6C0F601858984A3A8C086E091E00E9470
:104DC000031FA801B701C60107960E94041F88238C
:104DD00071F3D60155968C915597833009F095C0A3
:104DE00081E093968C93939752968C9152979696D6
:104DF0008C93969753968C91539797968C939797FD
:104E000057968C91579795968C937FC08BEE90E038
:104E10000E94031FA801B701C60107960E94041F44
:104E2000882329F2F60183A1882309F46EC08281C8
:104E30009381009709F469C0DC01ED91FC91019028
:104E4000F081E02D7601B0E1EB0EF11CD6019596D4
:104E50000C91959797962C91979796964C9196973B
:104E600094966C91099551C085ED90E00E94031FC6
:104E7000A801B701C60107960E94041F811145C011
:104E800096CF88EA90E00E94031F40E150E0F601CF
:104E900062A187EB95E00E94CB33D60191968C916D
:104EA00091971D969C91992319F0913009F127C093
:104EB00090E00297F6019787868781E0858718C082
:104EC000D8012D913C91232BD1F00197D6011F964B
:104ED0009C938E931E97F701808191810196918317
:104EE0008083D8018D919C91119701978D939C930C
:104EF000F60186859785009719F7F6011586F60164
:104F000086859785892B09F052CFC6014096D60138
:104F100016969C938E93159790961C9221E0822F63
:104F20000F90DF91CF911F910F91FF90EF90DF9045
:104F3000CF9008950F931F93CF93DF9300D000D0AD
:104F4000CDB7DEB78C017C836B835A8349838B8119
:104F50009C81892B59F0AE014D5F5F4FBE016F5FA1
:104F60007F4FC8010E9445268111F1CF0F900F900D
:104F70000F900F90DF91CF911F910F910895EF92B5
:104F8000FF920F9302970E9416230F91FF90EF90CC
:104F90000895CF93C82F60E08AE00E943431CEBDDF
:104FA0000DB407FEFDCF1EBC0DB407FEFDCF61E0C2
:104FB0008AE00E9434318EB5CF910895FC0189EBCF
:104FC00092E0918380831582108681E0818712862A
:104FD0009F012E5F3F4F37832683128288E08383B1
:104FE0008CE3848380E090E041E0DF01A80FB91FEB
:104FF0001D961C921D971E964C931E971F961C92F1
:105000001F971C963C932E931B9705968B34910506
:1050100061F7DF01A958BF4F1C9281E18093AC0575
:10502000EA58FF4F1082089520E030E041E0FC0193
:10503000E20FF31F5585561739F04F5F2B5F3F4F37
:105040004031A9F780E00895842F0895EF92FF92F0
:105050001F93CF93DF9300D0CDB7DEB77C01162F1F
:1050600067FD5FC0283008F05CC0442331F0DC01EC
:1050700015968C91873009F454C060E0C7012A83EB
:1050800049830E9414282A814981882309F449C050
:10509000E82FF0E0111123C085E08E9FD0018F9F93
:1050A000B00D1124AE0DBF1D442359F081E41896B4
:1050B0008C93D70115968C9115978F5F15968C93CD
:1050C00003C081E018968C9385E08E9FD0018F9F5E
:1050D000B00D1124AE0DBF1D18968C9123C0612F09
:1050E0006770660F660F660F442361F06064D70136
:1050F00015968C9115978F5F15968C938770687FA6
:10510000682B03C02770687B622B85E08E9FD001DF
:105110008F9FB00D1124AE0DBF1D18966C93862F76
:1051200001C080E00F900F90DF91CF911F91FF9011
:10513000EF900895CF93DF93EC01662359F00E941E
:105140001428882349F09E0145E0849F200D311DDD
:105150001124C901069602C080E090E0DF91CF9152
:105160000895CF93DF931F92CDB7DEB749830E9496
:105170009A284981009789F0DC01ED91FC91119703
:10518000309759F013969C9180E0891731F0208177
:10519000241731F033968F5FF8CF80E090E001C0A4
:1051A000CF010F90DF91CF910895EF92FF921F935F
:1051B000CF93DF931F92CDB7DEB7162F790121155C
:1051C000310569F049830E949A28FC0149810097C2
:1051D00041F01283F182E082438380E003C088EDD6
:1051E00001C086ED0F90DF91CF911F91FF90EF905E
:1051F00008952A9A0895CF93DF93D82FC62F60E0A1
:105200008AE00E943431D260DEBD0DB407FEFDCFCE
:10521000CEBD0DB407FEFDCF0E94F92861E08AE003
:10522000DF91CF910C9434318F929F92BF92CF92A5
:10523000DF92EF92FF920F931F93CF93DF931F9212
:10524000CDB7DEB74C01B62E690149830E949A287A
:105250007C014981009709F447C0FC01808191815C
:10526000892B09F443C06B2DC4010E94B128F601BB
:10527000918380830097E1F1FC0122812695269598
:10528000822F90E0409764F441E050E060E070E0ED
:1052900004C0440F551F661F771F2A95D2F702C01E
:1052A00040E050E8F801518340836B2D80EE0E946E
:1052B000FB2888ED0E94C927F7019481992339F0D2
:1052C000F401E958FF4F60816260682B02C0682FCB
:1052D000697F88ED0E94FB2864E170E080E090E047
:1052E0000E945D3080E005C086ED03C087ED01C0FF
:1052F0008BED0F90DF91CF911F910F91FF90EF9069
:10530000DF90CF90BF909F908F9008956F927F9283
:105310009F92AF92BF92CF92DF92EF92FF920F9344
:105320001F93CF93DF931F92CDB7DEB7A62E8901CF
:1053300049830E942E300E942E306B017C0188E848
:10534000C80E83E1D81EE11CF11C612C712CB12C1C
:105350004981A42A0E942E306C157D058E059F057B
:1053600098F56A2D80EF0E94FB280E942E306C1564
:105370007D058E059F05A8F488EC0E94C92787FF4C
:10538000F4CF60E888EC0E94FB2888EF0E94C927D0
:105390008F70982EE4E08E1731F0FEE08F1771F0D9
:1053A00013C08FEF12C08FEF681A780A011511052C
:1053B00089F26016710671F684E007C0B394E3E0E9
:1053C000BE12C8CF8EE001C0892D0F90DF91CF9122
:1053D0001F910F91FF90EF90DF90CF90BF90AF9013
:1053E0009F907F906F900895CF93DF932A9882606B
:1053F0008EBDFA01862F815030F00DB407FEFDCF2F
:1054000091919EBDF8CFEA01C60FD11D0DB407FEE4
:10541000FDCF0E94F928CE01DF91CF9108952F9200
:105420003F924F925F926F927F928F929F92AF9234
:10543000BF92CF92DF92EF92FF920F931F93CF9381
:10544000DF9300D000D01F92CDB7DEB77D836C8391
:105450001A016901FB01F1808FEF8F0D803408F094
:105460005DC00E942E302B013C01F8E84F0EF3E1A5
:105470005F1E611C711CEC81FD81828180FF02C076
:1054800060E801C060E488EE0E94FB288F2D90E068
:105490009A838983C114D104A1F17601E981FA814B
:1054A000EC15FD0508F47F01EB82A8016E2D80E16B
:1054B0000E94F4296E2D88E30E94FB28EC81FD8177
:1054C0006081606280EF0E94FB2888EC0E94C927FF
:1054D00087FFFBCF60E888EC0E94FB2888EF0E94E2
:1054E000C9278F70982EA12CB12C812C992009F4FA
:1054F00053C00E942E30641575058605970580F00F
:105500004BC088EF0E94C92785FB882780F9EC8172
:10551000FD81928180FB90F9928308C08AED41C0A1
:10552000F4E09F1629F08EE0981681F1892D39C09C
:10553000FFEFAF1ABF0A2114310419F0A214B3040B
:1055400019F160E088E30E94FB28F801608180E1A6
:105550000E94FB286B8188E30E94FB28EC81FD817F
:105560006081606280EF0E94FB2888EC0E94C9275E
:1055700087FFFBCF60E888EC0E94FB2888EF0E9441
:10558000C9278F70982EB2CF84E00BC0839483E03C
:105590008812D7CF8EE005C0CE18DF080E0D1F1D74
:1055A00079CF0F900F900F900F900F90DF91CF91C8
:1055B0001F910F91FF90EF90DF90CF90BF90AF9031
:1055C0009F908F907F906F905F904F903F902F9023
:1055D0000895AF92BF92CF92DF92EF92FF920F9316
:1055E0001F93CF93DF9300D000D0CDB7DEB77C01FF
:1055F000690158011C821B828E010F5F1F4F9E01A3
:105600002D5F3F4F0E941429811109C049815A81A1
:105610006B817C8185019601C7010E940F2A0F9042
:105620000F900F900F90DF91CF911F910F91FF90EE
:10563000EF90DF90CF90BF90AF9008953F924F9240
:105640005F926F927F928F929F92AF92BF92CF9212
:10565000DF92EF92FF920F931F93CF93DF935C0142
:10566000EB014A017901F901C080D1805980118292
:1056700010828A8181FF02C060E201C060E188EE91
:105680000E94FB2898E0492E9401488160E0C50102
:105690000E948629811151C088EC0E94C92782FF8F
:1056A0004BC080E30E94C927382E682E712CC61487
:1056B000D70410F40E942E3CF7018081918196015D
:1056C000281B390B37FF02C020E030E0A30126156C
:1056D00037050CF4A9012A984EBC0DB407FEFDCF86
:1056E000F801842F800F8E1739F01EBC0DB407FE11
:1056F000FDCF9EB59193F7CF040F151F0E94F92897
:1057000064E088EC0E94FB28F70120813181260D9E
:10571000371D31832083351420F02C153D0508F406
:10572000B3CF88EF0E94C927829581709A8180FB50
:1057300091F99A8380E001C080EFDF91CF911F91B2
:105740000F91FF90EF90DF90CF90BF90AF909F9020
:105750008F907F906F905F904F903F9008952F9221
:105760003F924F925F926F927F928F929F92AF92F1
:10577000BF92CF92DF92EF92FF920F931F93CF933E
:10578000DF93CDB7DEB761970FB6F894DEBF0FBEDB
:10579000CDBF3C01542ED22E402E5E2D2EA03FA018
:1057A000E8A4F9A4188A1F868E01035F1F4F9E018B
:1057B000215F3F4F598B0E9414295989811171C073
:1057C000D9824A825B83CC82BE82AD8298868F82E8
:1057D000AE014F5F5F4F68E080E20E94F4292D85A3
:1057E0003E85452D60E1C3010E948629811159C083
:1057F000BD2CBB1CBB24BB1CE114F10409F446C046
:10580000EF85F8898281BB20A9F1826082836401DF
:10581000C114D104D9F13C862B864D855E856F85F8
:10582000788987019E01255F3F4FC3010E941E2B8F
:10583000811137C08AA59BA50097A1F0DC01ED91ED
:10584000FC9111970190F081E02DC4018C199D0904
:105850009A8789876B857C859E01275F3F4FA701CB
:10586000CD0109958B859C85C81AD90A82159305A7
:1058700078F60CC0816082834D855E858701910139
:10588000BF01C3010E940F2A81110BC02D853E85E7
:10589000BB2011F060EA01C060E8452DC3010E9401
:1058A000862961960FB6F894DEBF0FBECDBFDF919B
:1058B000CF911F910F91FF90EF90DF90CF90BF900D
:1058C000AF909F908F907F906F905F904F903F90A0
:1058D0002F9008958F929F92AF92BF92CF92EF92A6
:1058E0000F931F931F921F921F930F933F932F931A
:1058F0004901A12CB12CCC24C394E12C06E020E872
:105900000E94AF2B0F900F900F900F900F900F9061
:105910001F910F91EF90CF90BF90AF909F908F907D
:1059200008958F929F92AF92BF92CF92EF92FF9283
:105930000F931F921F92FF92EF923F932F93490173
:10594000A12CB12C22E0C22EE02E06E020E80E941D
:10595000AF2B0F900F900F900F900F900F900F9113
:10596000FF90EF90CF90BF90AF909F908F90089551
:105970003F924F925F926F927F928F929F92AF92DF
:10598000BF92CF92DF92EF92FF920F931F93CF932C
:10599000DF93CDB7DEB7C054D1090FB6F894DEBFA0
:1059A0000FBECDBF3C01562E442E322EB02ECE015E
:1059B00001966C017C01022F28E030E0C3010E94B7
:1059C000912C81111BC08B809C801F93BF92DF9212
:1059D000CF921F9280E48F93A12CB12C32E0C32E82
:1059E000E32C06E020E8442D652DC3010E94AF2B77
:1059F0000F900F900F900F900F900F90C05CDF4FA3
:105A00000FB6F894DEBF0FBECDBFDF91CF911F91CF
:105A10000F91FF90EF90DF90CF90BF90AF909F904D
:105A20008F907F906F905F904F903F9008958F92EE
:105A30009F92AF92BF92CF92EF920F931F921F92BD
:105A40001F921F921F921F92812C912CA12CB12C7E
:105A5000C12CE22E05E020E00E94AF2B0F900F90AA
:105A60000F900F900F900F900F91EF90CF90BF90ED
:105A7000AF909F908F9008958F929F92AF92BF9218
:105A8000CF92EF920F931F921F921F921F921F921D
:105A90001F92812C912CA12CB12CC12CE22E09E05B
:105AA00020E00E94AF2B0F900F900F900F900F905F
:105AB0000F900F91EF90CF90BF90AF909F908F90ED
:105AC0000895AF92BF92CF92DF92EF92FF920F9321
:105AD0001F93CF93DF9300D000D0CDB7DEB77C010A
